:020000040000FA
:100000000C945E000C9486000C9486000C94860080
:100010000C9486000C9486000C9486000C94860048
:100020000C9486000C9486000C9486000C94860038
:100030000C9486000C9486000C9486000C94860028
:100040000C9442020C9486000C94B2020C948C0224
:100050000C9486000C9486000C9486000C94860008
:100060000C9486000C9486000000000024002700F9
:100070002A0000000000250028002B0004040404CE
:100080000404040402020202020203030303030342
:10009000010204081020408001020408102001021F
:1000A00004081020000000080002010000030407FB
:1000B0000000000000000000E402A90411241FBE9B
:1000C000CFEFD8E0DEBFCDBF21E0ACE1B1E001C0B1
:1000D0001D92AD3CB207E1F711E0A0E0B1E0E6EB24
:1000E000FEE002C005900D92AC31B107D9F710E0E7
:1000F000CDE5D0E004C02197FE010E944805CC3533
:10010000D107C9F70E941D030C944E070C94000000
:10011000E1EBF0E02491EDE9F0E09491E9E8F0E022
:10012000E491EE23C9F0222339F0233001F1A8F441
:10013000213019F1223029F1F0E0EE0FFF1FEE58C7
:10014000FF4FA591B4912FB7F894EC91811126C07F
:1001500090959E239C932FBF08952730A9F02830B7
:10016000C9F0243049F7209180002F7D03C02091F1
:1001700080002F7720938000DFCF24B52F7724BD18
:10018000DBCF24B52F7DFBCF2091B0002F772093BC
:10019000B000D2CF2091B0002F7DF9CF9E2BDACFC7
:1001A000AF92BF92CF92DF92EF92FF920F931F9385
:1001B000CF93DF936C017B018B01040F151FEB01C3
:1001C0005E01AE18BF08C017D10759F06991D6017A
:1001D000ED91FC910190F081E02DC6010995892BEC
:1001E00079F7C501DF91CF911F910F91FF90EF90AB
:1001F000DF90CF90BF90AF900895FC01538D448D58
:10020000252F30E0842F90E0821B930B541710F0C1
:10021000CF96089501970895FC01918D828D9817CE
:1002200061F0A28DAE0FBF2FB11D5D968C91928DA6
:100230009F5F9F73928F90E008958FEF9FEF0895D7
:10024000FC01918D828D981731F0828DE80FF11DA0
:10025000858D90E008958FEF9FEF0895FC01918DBB
:10026000228D892F90E0805C9F4F821B91098F73B4
:100270009927089586E291E00E942E0121E0892BC2
:1002800009F420E0822F089580E090E0892B29F086
:100290000E943A0181110C9400000895FC01A48D84
:1002A000A80FB92FB11DA35ABF4F2C91848D90E098
:1002B00001968F739927848FA689B7892C93A0897B
:1002C000B1898C91837080648C93938D848D981305
:1002D00006C00288F389E02D80818F7D8083089598
:1002E000EF92FF920F931F93CF93DF93EC0181E086
:1002F000888F9B8D8C8D98131AC0E889F98980812D
:1003000085FF15C09FB7F894EE89FF896083E8895F
:10031000F98980818370806480839FBF81E090E051
:10032000DF91CF911F910F91FF90EF900895F62EDE
:100330000B8D10E00F5F1F4F0F731127E02E8C8D78
:100340008E110CC00FB607FCFACFE889F9898081BD
:1003500085FFF5CFCE010E944E01F1CFEB8DEC0F62
:10036000FD2FF11DE35AFF4FF0829FB7F8940B8FDA
:10037000EA89FB8980818062CFCFCF93DF93EC0144
:10038000888D8823B9F0AA89BB89E889F9898C917D
:1003900085FD03C0808186FD0DC00FB607FCF7CF39
:1003A0008C9185FFF2CF808185FFEDCFCE010E9439
:1003B0004E01E9CFDF91CF910895FC0180819181B9
:1003C000009711F00C94EA0508950F931F93CF93B3
:1003D000DF93EC0188819981009759F02A813B8154
:1003E0002617370730F081E0DF91CF911F910F91F1
:1003F00008958B016F5F7F4F0E947306009759F03D
:10040000998388831B830A832C813D81232B59F791
:10041000FC011082E8CF80E0E7CFEF92FF920F93CC
:100420001F93CF93DF93EC017B018A01BA010E94F5
:10043000E50128813981811114C02115310519F098
:10044000C9010E94EA05198218821D821C821B8242
:100450001A82CE01DF91CF911F910F91FF90EF9003
:1004600008951D830C83B701C9010E943907F1CF9C
:10047000FB0101900020E9F73197AF01461B570BB4
:100480000C940D021F920F920FB60F9211242F930E
:100490003F938F939F93AF93BF938091220190914D
:1004A0002301A0912401B09125013091210123E085
:1004B000230F2D3758F50196A11DB11D2093210161
:1004C0008093220190932301A0932401B0932501EE
:1004D00080911D0190911E01A0911F01B0912001FA
:1004E0000196A11DB11D80931D0190931E01A09343
:1004F0001F01B0932001BF91AF919F918F913F91C8
:100500002F910F900FBE0F901F90189526E8230F84
:100510000296A11DB11DD2CF1F920F920FB60F925E
:1005200011242F933F934F935F936F937F938F93F8
:100530009F93AF93BF93EF93FF9386E291E00E9466
:100540004E01FF91EF91BF91AF919F918F917F915C
:100550006F915F914F913F912F910F900FBE0F9030
:100560001F9018951F920F920FB60F9211242F9380
:100570008F939F93EF93FF93E0913601F0913701B2
:100580008081E0913C01F0913D0182FD1BC0908192
:1005900080913F018F5F8F7320914001821741F05E
:1005A000E0913F01F0E0EA5DFE4F958F80933F01BF
:1005B000FF91EF919F918F912F910F900FBE0F9010
:1005C0001F9018958081F4CFE6E2F1E01382128249
:1005D00088EE93E0A0E0B0E084839583A683B783A0
:1005E0008AE091E09183808385EC90E09587848711
:1005F00084EC90E09787868780EC90E0918B808BED
:1006000081EC90E0938B828B82EC90E0958B848BD5
:1006100086EC90E0978B868B118E128E138E148E43
:10062000E3ECF1E0118210821382128215821482AF
:100630006BE171E0CF010C943802CF93DF9300D0CF
:1006400000D000D0CDB7DEB7789484B5826084BD89
:1006500084B5816084BD85B5826085BD85B58160C6
:1006600085BD80916E00816080936E001092810044
:1006700080918100826080938100809181008160FF
:1006800080938100809180008160809380008091C0
:10069000B10084608093B1008091B000816080934C
:1006A000B00080917A00846080937A0080917A0013
:1006B000826080937A0080917A00816080937A00D2
:1006C00080917A00806880937A001092C100E09156
:1006D0003601F091370182E08083E0913201F091A0
:1006E00033011082E0913401F09135018FEC808369
:1006F00010923E01E0913A01F0913B0186E0808347
:10070000E0913801F0913901808180618083E0912E
:100710003801F0913901808188608083E09138014F
:10072000F0913901808180688083E0913801F091F7
:10073000390180818F7D8083EDE9F0E02491E9E843
:10074000F0E08491882399F090E0880F991FFC01D4
:10075000E859FF4FA591B491FC01EE58FF4F8591E8
:1007600094918FB7F894EC91E22BEC938FBF80E0DB
:100770000E9488002AE0C22ED12C9924939430E064
:10078000E32E30E0F32E86E291E00E942E01892BC9
:1007900009F49FC086E291E00E940C018A3009F0C2
:1007A000B5C01A8219821C821B821E821D8268E1DA
:1007B00071E0CE0101960E9438024D815E818091E8
:1007C000C7019091C8018417950780F08091C301FB
:1007D0009091C401009751F069817A81611571058A
:1007E00029F00E94400711E0892B09F010E0CE01AA
:1007F00001960E94DD01112309F463C06090C701D6
:100800007090C80183E0A82EB12C83E068167104B3
:1008100020F4530193E0692E712C1A8219821C82F4
:100820001B821E821D826BE171E0CE0101960E9447
:1008300038020091C7011091C801A016B10650F509
:100840006016710608F48301E091C301F091C401C0
:10085000E00FF11F808010826091C3017091C4018C
:100860006A0D7B1D6115710509F43FC0FB01019004
:100870000020E9F73197AF01461B570BCE010196D7
:100880000E940D028091C3019091C401080F191FAD
:10089000F801808289819A810097A1F10E94AD04BC
:1008A000CB01B6010E942005892B39F480911C01EF
:1008B000892580931C010E948800CE0101960E9428
:1008C000DD0150E040E06BE171E083EC91E00E94DB
:1008D0000D02E114F10409F456CF0E943A01882375
:1008E00009F451CF0E9400004ECF89819A81009770
:1008F00011F00E94EA051A8219821E821D821C8252
:100900001B82C0CF60E070E0CB01CACF89831A821E
:100910000091C7011091C8010F5F1F4FB80183EC10
:1009200091E00E94E5018823A1F22091C30130915A
:10093000C4018091C7019091C801BE016F5F7F4FD4
:10094000820F931F0E9439071093C8010093C701BB
:10095000C0CF83EC91E00C94DD011F93FC0199273B
:100960008827BC01E89411911032E9F3193010F096
:100970001E30C8F31B3251F01D3249F4689406C092
:100980000E94D404610F711D811D911D119110539E
:100990001A30B0F33EF490958095709561957F4F35
:1009A0008F4F9F4F1F910895592F482F372F262F74
:1009B000660F771F881F991F660F771F881F991F63
:1009C000620F731F841F951F660F771F881F991F63
:1009D00008952F923F924F925F926F927F928F92E3
:1009E0009F92AF92BF92CF92DF92EF92FF920F93BE
:1009F0001F93CF93DF93CDB7DEB7CA1BDB0B0FB6C8
:100A0000F894DEBF0FBECDBF09942A883988488884
:100A10005F846E847D848C849B84AA84B984C8841A
:100A2000DF80EE80FD800C811B81AA81B981CE0F11
:100A3000D11D0FB6F894DEBF0FBECDBFED010895F6
:100A400097FB072E16F4009407D077FD09D00E947B
:100A5000340507FC05D03EF4909581959F4F08958D
:100A6000709561957F4F0895AA1BBB1B51E107C08C
:100A7000AA1FBB1FA617B70710F0A61BB70B881F2E
:100A8000991F5A95A9F780959095BC01CD010895BD
:100A9000EE0FFF1F0590F491E02D09940F931F9323
:100AA000CF93DF938230910510F482E090E0E091E3
:100AB000CB01F091CC0130E020E0B0E0A0E0309735
:100AC00099F42115310509F44AC0281B390B24304B
:100AD0003105D8F58A819B816115710589F1FB018A
:100AE00093838283FE0111C0408151810281138171
:100AF00048175907E0F04817590799F4109761F023
:100B000012960C93129713961C933296CF01DF9195
:100B1000CF911F910F9108950093CB011093CC01B9
:100B2000F4CF2115310551F04217530738F0A901D0
:100B3000DB019A01BD01DF01F801C1CFEF01F9CF5F
:100B40009093CC018093CB01CDCFFE01E20FF31F38
:100B5000819391932250310939832883D7CF2091F3
:100B6000C9013091CA01232B41F420910201309137
:100B700003013093CA012093C901209100013091F3
:100B800001012115310541F42DB73EB74091040113
:100B900050910501241B350BE091C901F091CA0168
:100BA000E217F307A0F42E1B3F0B2817390778F044
:100BB000AC014E5F5F4F2417350748F04E0F5F1FA3
:100BC0005093CA014093C901819391939FCFF0E064
:100BD000E0E09CCFCF93DF930097E9F0FC013297E0
:100BE00013821282A091CB01B091CC01ED0130E0D3
:100BF00020E01097A1F420813181820F931F209172
:100C0000C9013091CA012817390709F061C0F09372
:100C1000CA01E093C901DF91CF910895EA01CE178F
:100C2000DF07E8F54A815B819E0141155105B1F767
:100C3000E901FB83EA8349915991C40FD51FEC1751
:100C4000FD0761F4808191810296840F951FE9016F
:100C500099838883828193819B838A83F0E0E0E09B
:100C600012968D919C9113970097B9F52D913C9117
:100C70001197CD010296820F931F2091C9013091E7
:100C8000CA012817390739F6309751F51092CC016F
:100C90001092CB01B093CA01A093C901BCCFD383FA
:100CA000C28340815181840F951FC817D90761F411
:100CB0004E5F5F4F88819981480F591F5183408350
:100CC0008A819B81938382832115310509F0B0CFFE
:100CD000F093CC01E093CB019ECFFD01DC01C0CFAE
:100CE00013821282D7CFB0E0A0E0E9E7F6E00C94DF
:100CF000EB048C01009751F4CB010E944E058C014E
:100D0000C801CDB7DEB7E0E10C940705FC01E60FA2
:100D1000F71F9C0122503109E217F30708F49DC028
:100D2000D901CD91DC911197C617D70798F0C5303E
:100D3000D10530F3CE0104978617970708F3C61B39
:100D4000D70B2297C193D1936D937C93CF010E94CF
:100D5000EA05D6CF5B01AC1ABD0A4C018C0E9D1E74
:100D6000A091CB01B091CC01512C412CF12CE12C64
:100D7000109731F58091C9019091CA0188159905A4
:100D800009F05CC04616570608F058C08091000173
:100D900090910101009741F48DB79EB740910401F5
:100DA00050910501841B950BE817F90708F055C011
:100DB000F093CA01E093C901F90171836083A0CF68
:100DC0008D919C91119712966C90129713967C902E
:100DD0001397A815B90559F56C0142E0C40ED11C52
:100DE000CA14DB0420F1AC014A195B09DA0112963E
:100DF000159780F06282738251834083D9016D938D
:100E00007C93E114F10471F0D7011396FC93EE93F7
:100E1000129776CF22968C0F9D1FF90191838083C4
:100E2000F301EFCFF093CC01E093CB0169CF4816EB
:100E3000590608F42C017D01D3019ACFCB010E9401
:100E40004E057C01009749F0AE01B8010E943007C1
:100E5000C8010E94EA05870153CF10E000E050CF9F
:100E6000FB01DC0102C001900D9241505040D8F7C7
:100E70000895FB01DC0101900D920020E1F7089537
:100E8000FB01DC014150504030F08D910190801900
:100E900019F40020B9F7881B990B089510E0CDE5EF
:100EA000D0E004C0FE010E9448052196CE35D1074E
:100EB000C9F7F894FFCF0000CD01800000000000CA
:100EC0007001D000FD00BD012E010C012001415434
:020ED0002B00F5
:107E0000112484B714BE81FFF0D085E080938100F7
:107E100082E08093C00088E18093C10086E0809377
:107E2000C20080E18093C4008EE0C9D0259A86E02C
:107E300020E33CEF91E0309385002093840096BBD3
:107E4000B09BFECF1D9AA8958150A9F7CC24DD24C4
:107E500088248394B5E0AB2EA1E19A2EF3E0BF2EE7
:107E6000A2D0813461F49FD0082FAFD0023811F036
:107E7000013811F484E001C083E08DD089C08234E0
:107E800011F484E103C0853419F485E0A6D080C0E4
:107E9000853579F488D0E82EFF2485D0082F10E0AE
:107EA000102F00270E291F29000F111F8ED06801E7
:107EB0006FC0863521F484E090D080E0DECF843638
:107EC00009F040C070D06FD0082F6DD080E0C81688
:107ED00080E7D80618F4F601B7BEE895C0E0D1E017
:107EE00062D089930C17E1F7F0E0CF16F0E7DF06D8
:107EF00018F0F601B7BEE89568D007B600FCFDCFD4
:107F0000A601A0E0B1E02C9130E011968C91119780
:107F100090E0982F8827822B932B1296FA010C0160
:107F200087BEE89511244E5F5F4FF1E0A038BF0790
:107F300051F7F601A7BEE89507B600FCFDCF97BE46
:107F4000E89526C08437B1F42ED02DD0F82E2BD052
:107F50003CD0F601EF2C8F010F5F1F4F84911BD097
:107F6000EA94F801C1F70894C11CD11CFA94CF0C13
:107F7000D11C0EC0853739F428D08EE10CD085E9AC
:107F80000AD08FE07ACF813511F488E018D01DD067
:107F900080E101D065CF982F8091C00085FFFCCF94
:107FA0009093C60008958091C00087FFFCCF809118
:107FB000C00084FD01C0A8958091C6000895E0E648
:107FC000F0E098E1908380830895EDDF803219F02E
:107FD00088E0F5DFFFCF84E1DECF1F93182FE3DFCA
:107FE0001150E9F7F2DF1F91089580E0E8DFEE27F6
:047FF000FF270994CA
:027FFE00040479
:00000001FF
